{
  "_format": "hh-sol-artifact-1",
  "contractName": "NornToken",
  "sourceName": "contracts/NornToken.sol",
  "abi": [
    {
      "inputs": [],
      "stateMutability": "nonpayable",
      "type": "constructor"
    },
    {
      "inputs": [
        {
          "internalType": "address",
          "name": "spender",
          "type": "address"
        },
        {
          "internalType": "uint256",
          "name": "allowance",
          "type": "uint256"
        },
        {
          "internalType": "uint256",
          "name": "needed",
          "type": "uint256"
        }
      ],
      "name": "ERC20InsufficientAllowance",
      "type": "error"
    },
    {
      "inputs": [
        {
          "internalType": "address",
          "name": "sender",
          "type": "address"
        },
        {
          "internalType": "uint256",
          "name": "balance",
          "type": "uint256"
        },
        {
          "internalType": "uint256",
          "name": "needed",
          "type": "uint256"
        }
      ],
      "name": "ERC20InsufficientBalance",
      "type": "error"
    },
    {
      "inputs": [
        {
          "internalType": "address",
          "name": "approver",
          "type": "address"
        }
      ],
      "name": "ERC20InvalidApprover",
      "type": "error"
    },
    {
      "inputs": [
        {
          "internalType": "address",
          "name": "receiver",
          "type": "address"
        }
      ],
      "name": "ERC20InvalidReceiver",
      "type": "error"
    },
    {
      "inputs": [
        {
          "internalType": "address",
          "name": "sender",
          "type": "address"
        }
      ],
      "name": "ERC20InvalidSender",
      "type": "error"
    },
    {
      "inputs": [
        {
          "internalType": "address",
          "name": "spender",
          "type": "address"
        }
      ],
      "name": "ERC20InvalidSpender",
      "type": "error"
    },
    {
      "inputs": [
        {
          "internalType": "address",
          "name": "owner",
          "type": "address"
        }
      ],
      "name": "OwnableInvalidOwner",
      "type": "error"
    },
    {
      "inputs": [
        {
          "internalType": "address",
          "name": "account",
          "type": "address"
        }
      ],
      "name": "OwnableUnauthorizedAccount",
      "type": "error"
    },
    {
      "anonymous": false,
      "inputs": [
        {
          "indexed": true,
          "internalType": "address",
          "name": "owner",
          "type": "address"
        },
        {
          "indexed": true,
          "internalType": "address",
          "name": "spender",
          "type": "address"
        },
        {
          "indexed": false,
          "internalType": "uint256",
          "name": "value",
          "type": "uint256"
        }
      ],
      "name": "Approval",
      "type": "event"
    },
    {
      "anonymous": false,
      "inputs": [
        {
          "indexed": true,
          "internalType": "address",
          "name": "previousOwner",
          "type": "address"
        },
        {
          "indexed": true,
          "internalType": "address",
          "name": "newOwner",
          "type": "address"
        }
      ],
      "name": "OwnershipTransferred",
      "type": "event"
    },
    {
      "anonymous": false,
      "inputs": [
        {
          "indexed": true,
          "internalType": "address",
          "name": "from",
          "type": "address"
        },
        {
          "indexed": true,
          "internalType": "address",
          "name": "to",
          "type": "address"
        },
        {
          "indexed": false,
          "internalType": "uint256",
          "name": "value",
          "type": "uint256"
        }
      ],
      "name": "Transfer",
      "type": "event"
    },
    {
      "inputs": [],
      "name": "CAP",
      "outputs": [
        {
          "internalType": "uint256",
          "name": "",
          "type": "uint256"
        }
      ],
      "stateMutability": "view",
      "type": "function"
    },
    {
      "inputs": [],
      "name": "VERSION",
      "outputs": [
        {
          "internalType": "string",
          "name": "",
          "type": "string"
        }
      ],
      "stateMutability": "view",
      "type": "function"
    },
    {
      "inputs": [
        {
          "internalType": "address",
          "name": "owner",
          "type": "address"
        },
        {
          "internalType": "address",
          "name": "spender",
          "type": "address"
        }
      ],
      "name": "allowance",
      "outputs": [
        {
          "internalType": "uint256",
          "name": "",
          "type": "uint256"
        }
      ],
      "stateMutability": "view",
      "type": "function"
    },
    {
      "inputs": [
        {
          "internalType": "address",
          "name": "spender",
          "type": "address"
        },
        {
          "internalType": "uint256",
          "name": "value",
          "type": "uint256"
        }
      ],
      "name": "approve",
      "outputs": [
        {
          "internalType": "bool",
          "name": "",
          "type": "bool"
        }
      ],
      "stateMutability": "nonpayable",
      "type": "function"
    },
    {
      "inputs": [
        {
          "internalType": "address",
          "name": "account",
          "type": "address"
        }
      ],
      "name": "balanceOf",
      "outputs": [
        {
          "internalType": "uint256",
          "name": "",
          "type": "uint256"
        }
      ],
      "stateMutability": "view",
      "type": "function"
    },
    {
      "inputs": [
        {
          "internalType": "address",
          "name": "from",
          "type": "address"
        },
        {
          "internalType": "uint256",
          "name": "amount",
          "type": "uint256"
        }
      ],
      "name": "burn",
      "outputs": [],
      "stateMutability": "nonpayable",
      "type": "function"
    },
    {
      "inputs": [],
      "name": "cap",
      "outputs": [
        {
          "internalType": "uint256",
          "name": "",
          "type": "uint256"
        }
      ],
      "stateMutability": "pure",
      "type": "function"
    },
    {
      "inputs": [],
      "name": "decimals",
      "outputs": [
        {
          "internalType": "uint8",
          "name": "",
          "type": "uint8"
        }
      ],
      "stateMutability": "view",
      "type": "function"
    },
    {
      "inputs": [
        {
          "internalType": "address",
          "name": "to",
          "type": "address"
        },
        {
          "internalType": "uint256",
          "name": "amount",
          "type": "uint256"
        }
      ],
      "name": "mint",
      "outputs": [],
      "stateMutability": "nonpayable",
      "type": "function"
    },
    {
      "inputs": [],
      "name": "name",
      "outputs": [
        {
          "internalType": "string",
          "name": "",
          "type": "string"
        }
      ],
      "stateMutability": "view",
      "type": "function"
    },
    {
      "inputs": [],
      "name": "owner",
      "outputs": [
        {
          "internalType": "address",
          "name": "",
          "type": "address"
        }
      ],
      "stateMutability": "view",
      "type": "function"
    },
    {
      "inputs": [],
      "name": "renounceOwnership",
      "outputs": [],
      "stateMutability": "nonpayable",
      "type": "function"
    },
    {
      "inputs": [],
      "name": "symbol",
      "outputs": [
        {
          "internalType": "string",
          "name": "",
          "type": "string"
        }
      ],
      "stateMutability": "view",
      "type": "function"
    },
    {
      "inputs": [],
      "name": "totalSupply",
      "outputs": [
        {
          "internalType": "uint256",
          "name": "",
          "type": "uint256"
        }
      ],
      "stateMutability": "view",
      "type": "function"
    },
    {
      "inputs": [
        {
          "internalType": "address",
          "name": "to",
          "type": "address"
        },
        {
          "internalType": "uint256",
          "name": "value",
          "type": "uint256"
        }
      ],
      "name": "transfer",
      "outputs": [
        {
          "internalType": "bool",
          "name": "",
          "type": "bool"
        }
      ],
      "stateMutability": "nonpayable",
      "type": "function"
    },
    {
      "inputs": [
        {
          "internalType": "address",
          "name": "from",
          "type": "address"
        },
        {
          "internalType": "address",
          "name": "to",
          "type": "address"
        },
        {
          "internalType": "uint256",
          "name": "value",
          "type": "uint256"
        }
      ],
      "name": "transferFrom",
      "outputs": [
        {
          "internalType": "bool",
          "name": "",
          "type": "bool"
        }
      ],
      "stateMutability": "nonpayable",
      "type": "function"
    },
    {
      "inputs": [
        {
          "internalType": "address",
          "name": "newOwner",
          "type": "address"
        }
      ],
      "name": "transferOwnership",
      "outputs": [],
      "stateMutability": "nonpayable",
      "type": "function"
    }
  ],
  "bytecode": "0x60806040523480156200001157600080fd5b50336040518060400160405280600a8152602001692737b937102a37b5b2b760b11b815250604051806040016040528060048152602001632727a92760e11b815250816003908162000064919062000348565b50600462000073828262000348565b5050506001600160a01b038116620000a657604051631e4fbdf760e01b8152600060048201526024015b60405180910390fd5b620000b181620000e0565b50620000da33620000c56012600a62000529565b620000d4906298968062000541565b62000132565b62000571565b600580546001600160a01b038381166001600160a01b0319831681179093556040519116919082907f8be0079c531659141344cd1fd0a4f28419497f9722a3daafe3b4186f6b6457e090600090a35050565b6001600160a01b0382166200015e5760405163ec442f0560e01b8152600060048201526024016200009d565b6200016c6000838362000170565b5050565b6001600160a01b0383166200019f5780600260008282546200019391906200055b565b90915550620002139050565b6001600160a01b03831660009081526020819052604090205481811015620001f45760405163391434e360e21b81526001600160a01b038516600482015260248101829052604481018390526064016200009d565b6001600160a01b03841660009081526020819052604090209082900390555b6001600160a01b038216620002315760028054829003905562000250565b6001600160a01b03821660009081526020819052604090208054820190555b816001600160a01b0316836001600160a01b03167fddf252ad1be2c89b69c2b068fc378daa952ba7f163c4a11628f55a4df523b3ef836040516200029691815260200190565b60405180910390a3505050565b634e487b7160e01b600052604160045260246000fd5b600181811c90821680620002ce57607f821691505b602082108103620002ef57634e487b7160e01b600052602260045260246000fd5b50919050565b601f8211156200034357600081815260208120601f850160051c810160208610156200031e5750805b601f850160051c820191505b818110156200033f578281556001016200032a565b5050505b505050565b81516001600160401b03811115620003645762000364620002a3565b6200037c81620003758454620002b9565b84620002f5565b602080601f831160018114620003b457600084156200039b5750858301515b600019600386901b1c1916600185901b1785556200033f565b600085815260208120601f198616915b82811015620003e557888601518255948401946001909101908401620003c4565b5085821015620004045787850151600019600388901b60f8161c191681555b5050505050600190811b01905550565b634e487b7160e01b600052601160045260246000fd5b600181815b808511156200046b5781600019048211156200044f576200044f62000414565b808516156200045d57918102915b93841c93908002906200042f565b509250929050565b600082620004845750600162000523565b81620004935750600062000523565b8160018114620004ac5760028114620004b757620004d7565b600191505062000523565b60ff841115620004cb57620004cb62000414565b50506001821b62000523565b5060208310610133831016604e8410600b8410161715620004fc575081810a62000523565b6200050883836200042a565b80600019048211156200051f576200051f62000414565b0290505b92915050565b60006200053a60ff84168362000473565b9392505050565b808202811582820484141762000523576200052362000414565b8082018082111562000523576200052362000414565b610a1480620005816000396000f3fe608060405234801561001057600080fd5b506004361061010b5760003560e01c8063715018a6116100a2578063a9059cbb11610071578063a9059cbb14610213578063dd62ed3e14610226578063ec81b4831461025f578063f2fde38b14610272578063ffa1ad741461028557600080fd5b8063715018a6146101d55780638da5cb5b146101dd57806395d89b41146101f85780639dc29fac1461020057600080fd5b8063313ce567116100de578063313ce56714610176578063355274ea1461018557806340c10f191461019757806370a08231146101ac57600080fd5b806306fdde0314610110578063095ea7b31461012e57806318160ddd1461015157806323b872dd14610163575b600080fd5b6101186102a9565b604051610125919061085e565b60405180910390f35b61014161013c3660046108c8565b61033b565b6040519015158152602001610125565b6002545b604051908152602001610125565b6101416101713660046108f2565b610355565b60405160128152602001610125565b6b033b2e3c9fd0803ce8000000610155565b6101aa6101a53660046108c8565b610379565b005b6101556101ba36600461092e565b6001600160a01b031660009081526020819052604090205490565b6101aa610403565b6005546040516001600160a01b039091168152602001610125565b610118610417565b6101aa61020e3660046108c8565b610426565b6101416102213660046108c8565b610438565b610155610234366004610950565b6001600160a01b03918216600090815260016020908152604080832093909416825291909152205490565b6101556b033b2e3c9fd0803ce800000081565b6101aa61028036600461092e565b610446565b610118604051806040016040528060058152602001640312e302e360dc1b81525081565b6060600380546102b890610983565b80601f01602080910402602001604051908101604052809291908181526020018280546102e490610983565b80156103315780601f1061030657610100808354040283529160200191610331565b820191906000526020600020905b81548152906001019060200180831161031457829003601f168201915b5050505050905090565b600033610349818585610484565b60019150505b92915050565b600033610363858285610496565b61036e858585610515565b506001949350505050565b610381610574565b6b033b2e3c9fd0803ce80000008161039860025490565b6103a291906109bd565b11156103f55760405162461bcd60e51b815260206004820152601760248201527f4e6f726e546f6b656e3a2063617020657863656564656400000000000000000060448201526064015b60405180910390fd5b6103ff82826105a1565b5050565b61040b610574565b61041560006105d7565b565b6060600480546102b890610983565b61042e610574565b6103ff8282610629565b600033610349818585610515565b61044e610574565b6001600160a01b03811661047857604051631e4fbdf760e01b8152600060048201526024016103ec565b610481816105d7565b50565b610491838383600161065f565b505050565b6001600160a01b0383811660009081526001602090815260408083209386168352929052205460001981101561050f578181101561050057604051637dc7a0d960e11b81526001600160a01b038416600482015260248101829052604481018390526064016103ec565b61050f8484848403600061065f565b50505050565b6001600160a01b03831661053f57604051634b637e8f60e11b8152600060048201526024016103ec565b6001600160a01b0382166105695760405163ec442f0560e01b8152600060048201526024016103ec565b610491838383610734565b6005546001600160a01b031633146104155760405163118cdaa760e01b81523360048201526024016103ec565b6001600160a01b0382166105cb5760405163ec442f0560e01b8152600060048201526024016103ec565b6103ff60008383610734565b600580546001600160a01b038381166001600160a01b0319831681179093556040519116919082907f8be0079c531659141344cd1fd0a4f28419497f9722a3daafe3b4186f6b6457e090600090a35050565b6001600160a01b03821661065357604051634b637e8f60e11b8152600060048201526024016103ec565b6103ff82600083610734565b6001600160a01b0384166106895760405163e602df0560e01b8152600060048201526024016103ec565b6001600160a01b0383166106b357604051634a1406b160e11b8152600060048201526024016103ec565b6001600160a01b038085166000908152600160209081526040808320938716835292905220829055801561050f57826001600160a01b0316846001600160a01b03167f8c5be1e5ebec7d5bd14f71427d1e84f3dd0314c0f7b2291e5b200ac8c7c3b9258460405161072691815260200190565b60405180910390a350505050565b6001600160a01b03831661075f57806002600082825461075491906109bd565b909155506107d19050565b6001600160a01b038316600090815260208190526040902054818110156107b25760405163391434e360e21b81526001600160a01b038516600482015260248101829052604481018390526064016103ec565b6001600160a01b03841660009081526020819052604090209082900390555b6001600160a01b0382166107ed5760028054829003905561080c565b6001600160a01b03821660009081526020819052604090208054820190555b816001600160a01b0316836001600160a01b03167fddf252ad1be2c89b69c2b068fc378daa952ba7f163c4a11628f55a4df523b3ef8360405161085191815260200190565b60405180910390a3505050565b600060208083528351808285015260005b8181101561088b5785810183015185820160400152820161086f565b506000604082860101526040601f19601f8301168501019250505092915050565b80356001600160a01b03811681146108c357600080fd5b919050565b600080604083850312156108db57600080fd5b6108e4836108ac565b946020939093013593505050565b60008060006060848603121561090757600080fd5b610910846108ac565b925061091e602085016108ac565b9150604084013590509250925092565b60006020828403121561094057600080fd5b610949826108ac565b9392505050565b6000806040838503121561096357600080fd5b61096c836108ac565b915061097a602084016108ac565b90509250929050565b600181811c9082168061099757607f821691505b6020821081036109b757634e487b7160e01b600052602260045260246000fd5b50919050565b8082018082111561034f57634e487b7160e01b600052601160045260246000fdfea2646970667358221220402dfb3ac2b7517f1e22d3a2e67bbcebcd226952928a6043418b1dcbf76bb89c64736f6c63430008140033",
  "linkReferences": {},
  "deployedLinkReferences": {}
}