{"contracts/SimpleStorage.sol":{"SimpleStorage":{"abi":[{"anonymous":false,"inputs":[{"indexed":false,"internalType":"uint256","name":"itemId","type":"uint256"},{"indexed":true,"internalType":"address","name":"owner","type":"address"}],"name":"ItemAdded","type":"event"},{"anonymous":false,"inputs":[{"indexed":false,"internalType":"string","name":"newMessage","type":"string"},{"indexed":true,"internalType":"address","name":"changer","type":"address"}],"name":"MessageChanged","type":"event"},{"anonymous":false,"inputs":[{"indexed":false,"internalType":"uint256","name":"newValue","type":"uint256"},{"indexed":true,"internalType":"address","name":"changer","type":"address"}],"name":"ValueChanged","type":"event"},{"inputs":[{"internalType":"string","name":"data","type":"string"}],"name":"addItem","outputs":[{"internalType":"uint256","name":"","type":"uint256"}],"stateMutability":"nonpayable","type":"function"},{"inputs":[{"internalType":"uint256","name":"itemId","type":"uint256"}],"name":"getItem","outputs":[{"internalType":"uint256","name":"id","type":"uint256"},{"internalType":"address","name":"owner","type":"address"},{"internalType":"uint256","name":"timestamp","type":"uint256"},{"internalType":"string","name":"data","type":"string"}],"stateMutability":"view","type":"function"},{"inputs":[],"name":"getMessage","outputs":[{"internalType":"string","name":"","type":"string"}],"stateMutability":"view","type":"function"},{"inputs":[],"name":"getValue","outputs":[{"internalType":"uint256","name":"","type":"uint256"}],"stateMutability":"view","type":"function"},{"inputs":[],"name":"itemCount","outputs":[{"internalType":"uint256","name":"","type":"uint256"}],"stateMutability":"view","type":"function"},{"inputs":[{"internalType":"uint256","name":"","type":"uint256"}],"name":"items","outputs":[{"internalType":"uint256","name":"id","type":"uint256"},{"internalType":"address","name":"owner","type":"address"},{"internalType":"uint256","name":"timestamp","type":"uint256"},{"internalType":"string","name":"data","type":"string"}],"stateMutability":"view","type":"function"},{"inputs":[{"internalType":"string","name":"newMessage","type":"string"}],"name":"setMessage","outputs":[],"stateMutability":"nonpayable","type":"function"},{"inputs":[{"internalType":"uint256","name":"newValue","type":"uint256"}],"name":"setValue","outputs":[],"stateMutability":"nonpayable","type":"function"}],"evm":{"bytecode":{"linkReferences":{},"object":"608060405234801561001057600080fd5b506107f9806100206000396000f3fe608060405234801561001057600080fd5b50600436106100885760003560e01c8063552410771161005b57806355241077146100ef5780636bfb0d0114610102578063bfb231d21461010b578063ce6d41de1461011e57600080fd5b8063209652551461008d57806327e9f294146100a45780633129e773146100b7578063368b8772146100da575b600080fd5b6000545b6040519081526020015b60405180910390f35b6100916100b23660046104f2565b610133565b6100ca6100c53660046105a3565b610206565b60405161009b9493929190610602565b6100ed6100e83660046104f2565b610306565b005b6100ed6100fd3660046105a3565b610357565b61009160035481565b6100ca6101193660046105a3565b61038e565b61012661044a565b60405161009b9190610639565b600380546000918261014483610653565b9091555050604080516080810182526003805480835233602080850191825242858701908152606086018981526000948552600292839052969093208551815591516001830180546001600160a01b0319166001600160a01b039092169190911790559151918101919091559251919291908201906101c39082610703565b50506003546040519081523391507f6375005112faeb3c31f129d3aa24c423df50ca6f7c78b0490c6f4b691feac38a9060200160405180910390a2505060035490565b600081815260026020818152604080842081516080810183528154815260018201546001600160a01b031693810193909352928301549082015260038201805484938493606093859391929183860191906102609061067a565b80601f016020809104026020016040519081016040528092919081815260200182805461028c9061067a565b80156102d95780601f106102ae576101008083540402835291602001916102d9565b820191906000526020600020905b8154815290600101906020018083116102bc57829003601f168201915b505050919092525050815160208301516040840151606090940151919a9099509297509550909350505050565b60016103128282610703565b50336001600160a01b03167ffe805c34be9e63a416b9aba99c6c62782dafb9620895945675bbbe5131aeb1a18260405161034c9190610639565b60405180910390a250565b600081905560405181815233907fc53a6612a7428e1fc89cb87169d69d64eaefe94f5b45d43f80f1ad9d7065d2c89060200161034c565b6002602081905260009182526040909120805460018201549282015460038301805492946001600160a01b03169391926103c79061067a565b80601f01602080910402602001604051908101604052809291908181526020018280546103f39061067a565b80156104405780601f1061041557610100808354040283529160200191610440565b820191906000526020600020905b81548152906001019060200180831161042357829003601f168201915b5050505050905084565b6060600180546104599061067a565b80601f01602080910402602001604051908101604052809291908181526020018280546104859061067a565b80156104d25780601f106104a7576101008083540402835291602001916104d2565b820191906000526020600020905b8154815290600101906020018083116104b557829003601f168201915b5050505050905090565b634e487b7160e01b600052604160045260246000fd5b60006020828403121561050457600080fd5b813567ffffffffffffffff8082111561051c57600080fd5b818401915084601f83011261053057600080fd5b813581811115610542576105426104dc565b604051601f8201601f19908116603f0116810190838211818310171561056a5761056a6104dc565b8160405282815287602084870101111561058357600080fd5b826020860160208301376000928101602001929092525095945050505050565b6000602082840312156105b557600080fd5b5035919050565b6000815180845260005b818110156105e2576020818501810151868301820152016105c6565b506000602082860101526020601f19601f83011685010191505092915050565b84815260018060a01b038416602082015282604082015260806060820152600061062f60808301846105bc565b9695505050505050565b60208152600061064c60208301846105bc565b9392505050565b60006001820161067357634e487b7160e01b600052601160045260246000fd5b5060010190565b600181811c9082168061068e57607f821691505b6020821081036106ae57634e487b7160e01b600052602260045260246000fd5b50919050565b601f8211156106fe57600081815260208120601f850160051c810160208610156106db5750805b601f850160051c820191505b818110156106fa578281556001016106e7565b5050505b505050565b815167ffffffffffffffff81111561071d5761071d6104dc565b6107318161072b845461067a565b846106b4565b602080601f831160018114610766576000841561074e5750858301515b600019600386901b1c1916600185901b1785556106fa565b600085815260208120601f198616915b8281101561079557888601518255948401946001909101908401610776565b50858210156107b35787850151600019600388901b60f8161c191681555b5050505050600190811b0190555056fea264697066735822122042482afd201844a1053fa7903bb9c8b4854827e499b8dda1962d7b5841b5507d64736f6c63430008140033","opcodes":"PUSH1 0x80 PUSH1 0x40 MSTORE CALLVALUE DUP1 ISZERO PUSH2 0x10 JUMPI PUSH1 0x0 DUP1 REVERT JUMPDEST POP PUSH2 0x7F9 DUP1 PUSH2 0x20 PUSH1 0x0 CODECOPY PUSH1 0x0 RETURN INVALID PUSH1 0x80 PUSH1 0x40 MSTORE CALLVALUE DUP1 ISZERO PUSH2 0x10 JUMPI PUSH1 0x0 DUP1 REVERT JUMPDEST POP PUSH1 0x4 CALLDATASIZE LT PUSH2 0x88 JUMPI PUSH1 0x0 CALLDATALOAD PUSH1 0xE0 SHR DUP1 PUSH4 0x55241077 GT PUSH2 0x5B JUMPI DUP1 PUSH4 0x55241077 EQ PUSH2 0xEF JUMPI DUP1 PUSH4 0x6BFB0D01 EQ PUSH2 0x102 JUMPI DUP1 PUSH4 0xBFB231D2 EQ PUSH2 0x10B JUMPI DUP1 PUSH4 0xCE6D41DE EQ PUSH2 0x11E JUMPI PUSH1 0x0 DUP1 REVERT JUMPDEST DUP1 PUSH4 0x20965255 EQ PUSH2 0x8D JUMPI DUP1 PUSH4 0x27E9F294 EQ PUSH2 0xA4 JUMPI DUP1 PUSH4 0x3129E773 EQ PUSH2 0xB7 JUMPI DUP1 PUSH4 0x368B8772 EQ PUSH2 0xDA JUMPI JUMPDEST PUSH1 0x0 DUP1 REVERT JUMPDEST PUSH1 0x0 SLOAD JUMPDEST PUSH1 0x40 MLOAD SWAP1 DUP2 MSTORE PUSH1 0x20 ADD JUMPDEST PUSH1 0x40 MLOAD DUP1 SWAP2 SUB SWAP1 RETURN JUMPDEST PUSH2 0x91 PUSH2 0xB2 CALLDATASIZE PUSH1 0x4 PUSH2 0x4F2 JUMP JUMPDEST PUSH2 0x133 JUMP JUMPDEST PUSH2 0xCA PUSH2 0xC5 CALLDATASIZE PUSH1 0x4 PUSH2 0x5A3 JUMP JUMPDEST PUSH2 0x206 JUMP JUMPDEST PUSH1 0x40 MLOAD PUSH2 0x9B SWAP5 SWAP4 SWAP3 SWAP2 SWAP1 PUSH2 0x602 JUMP JUMPDEST PUSH2 0xED PUSH2 0xE8 CALLDATASIZE PUSH1 0x4 PUSH2 0x4F2 JUMP JUMPDEST PUSH2 0x306 JUMP JUMPDEST STOP JUMPDEST PUSH2 0xED PUSH2 0xFD CALLDATASIZE PUSH1 0x4 PUSH2 0x5A3 JUMP JUMPDEST PUSH2 0x357 JUMP JUMPDEST PUSH2 0x91 PUSH1 0x3 SLOAD DUP2 JUMP JUMPDEST PUSH2 0xCA PUSH2 0x119 CALLDATASIZE PUSH1 0x4 PUSH2 0x5A3 JUMP JUMPDEST PUSH2 0x38E JUMP JUMPDEST PUSH2 0x126 PUSH2 0x44A JUMP JUMPDEST PUSH1 0x40 MLOAD PUSH2 0x9B SWAP2 SWAP1 PUSH2 0x639 JUMP JUMPDEST PUSH1 0x3 DUP1 SLOAD PUSH1 0x0 SWAP2 DUP3 PUSH2 0x144 DUP4 PUSH2 0x653 JUMP JUMPDEST SWAP1 SWAP2 SSTORE POP POP PUSH1 0x40 DUP1 MLOAD PUSH1 0x80 DUP2 ADD DUP3 MSTORE PUSH1 0x3 DUP1 SLOAD DUP1 DUP4 MSTORE CALLER PUSH1 0x20 DUP1 DUP6 ADD SWAP2 DUP3 MSTORE TIMESTAMP DUP6 DUP8 ADD SWAP1 DUP2 MSTORE PUSH1 0x60 DUP7 ADD DUP10 DUP2 MSTORE PUSH1 0x0 SWAP5 DUP6 MSTORE PUSH1 0x2 SWAP3 DUP4 SWAP1 MSTORE SWAP7 SWAP1 SWAP4 KECCAK256 DUP6 MLOAD DUP2 SSTORE SWAP2 MLOAD PUSH1 0x1 DUP4 ADD DUP1 SLOAD PUSH1 0x1 PUSH1 0x1 PUSH1 0xA0 SHL SUB NOT AND PUSH1 0x1 PUSH1 0x1 PUSH1 0xA0 SHL SUB SWAP1 SWAP3 AND SWAP2 SWAP1 SWAP2 OR SWAP1 SSTORE SWAP2 MLOAD SWAP2 DUP2 ADD SWAP2 SWAP1 SWAP2 SSTORE SWAP3 MLOAD SWAP2 SWAP3 SWAP2 SWAP1 DUP3 ADD SWAP1 PUSH2 0x1C3 SWAP1 DUP3 PUSH2 0x703 JUMP JUMPDEST POP POP PUSH1 0x3 SLOAD PUSH1 0x40 MLOAD SWAP1 DUP2 MSTORE CALLER SWAP2 POP PUSH32 0x6375005112FAEB3C31F129D3AA24C423DF50CA6F7C78B0490C6F4B691FEAC38A SWAP1 PUSH1 0x20 ADD PUSH1 0x40 MLOAD DUP1 SWAP2 SUB SWAP1 LOG2 POP POP PUSH1 0x3 SLOAD SWAP1 JUMP JUMPDEST PUSH1 0x0 DUP2 DUP2 MSTORE PUSH1 0x2 PUSH1 0x20 DUP2 DUP2 MSTORE PUSH1 0x40 DUP1 DUP5 KECCAK256 DUP2 MLOAD PUSH1 0x80 DUP2 ADD DUP4 MSTORE DUP2 SLOAD DUP2 MSTORE PUSH1 0x1 DUP3 ADD SLOAD PUSH1 0x1 PUSH1 0x1 PUSH1 0xA0 SHL SUB AND SWAP4 DUP2 ADD SWAP4 SWAP1 SWAP4 MSTORE SWAP3 DUP4 ADD SLOAD SWAP1 DUP3 ADD MSTORE PUSH1 0x3 DUP3 ADD DUP1 SLOAD DUP5 SWAP4 DUP5 SWAP4 PUSH1 0x60 SWAP4 DUP6 SWAP4 SWAP2 SWAP3 SWAP2 DUP4 DUP7 ADD SWAP2 SWAP1 PUSH2 0x260 SWAP1 PUSH2 0x67A JUMP JUMPDEST DUP1 PUSH1 0x1F ADD PUSH1 0x20 DUP1 SWAP2 DIV MUL PUSH1 0x20 ADD PUSH1 0x40 MLOAD SWAP1 DUP2 ADD PUSH1 0x40 MSTORE DUP1 SWAP3 SWAP2 SWAP1 DUP2 DUP2 MSTORE PUSH1 0x20 ADD DUP3 DUP1 SLOAD PUSH2 0x28C SWAP1 PUSH2 0x67A JUMP JUMPDEST DUP1 ISZERO PUSH2 0x2D9 JUMPI DUP1 PUSH1 0x1F LT PUSH2 0x2AE JUMPI PUSH2 0x100 DUP1 DUP4 SLOAD DIV MUL DUP4 MSTORE SWAP2 PUSH1 0x20 ADD SWAP2 PUSH2 0x2D9 JUMP JUMPDEST DUP3 ADD SWAP2 SWAP1 PUSH1 0x0 MSTORE PUSH1 0x20 PUSH1 0x0 KECCAK256 SWAP1 JUMPDEST DUP2 SLOAD DUP2 MSTORE SWAP1 PUSH1 0x1 ADD SWAP1 PUSH1 0x20 ADD DUP1 DUP4 GT PUSH2 0x2BC JUMPI DUP3 SWAP1 SUB PUSH1 0x1F AND DUP3 ADD SWAP2 JUMPDEST POP POP POP SWAP2 SWAP1 SWAP3 MSTORE POP POP DUP2 MLOAD PUSH1 0x20 DUP4 ADD MLOAD PUSH1 0x40 DUP5 ADD MLOAD PUSH1 0x60 SWAP1 SWAP5 ADD MLOAD SWAP2 SWAP11 SWAP1 SWAP10 POP SWAP3 SWAP8 POP SWAP6 POP SWAP1 SWAP4 POP POP POP POP JUMP JUMPDEST PUSH1 0x1 PUSH2 0x312 DUP3 DUP3 PUSH2 0x703 JUMP JUMPDEST POP CALLER PUSH1 0x1 PUSH1 0x1 PUSH1 0xA0 SHL SUB AND PUSH32 0xFE805C34BE9E63A416B9ABA99C6C62782DAFB9620895945675BBBE5131AEB1A1 DUP3 PUSH1 0x40 MLOAD PUSH2 0x34C SWAP2 SWAP1 PUSH2 0x639 JUMP JUMPDEST PUSH1 0x40 MLOAD DUP1 SWAP2 SUB SWAP1 LOG2 POP JUMP JUMPDEST PUSH1 0x0 DUP2 SWAP1 SSTORE PUSH1 0x40 MLOAD DUP2 DUP2 MSTORE CALLER SWAP1 PUSH32 0xC53A6612A7428E1FC89CB87169D69D64EAEFE94F5B45D43F80F1AD9D7065D2C8 SWAP1 PUSH1 0x20 ADD PUSH2 0x34C JUMP JUMPDEST PUSH1 0x2 PUSH1 0x20 DUP2 SWAP1 MSTORE PUSH1 0x0 SWAP2 DUP3 MSTORE PUSH1 0x40 SWAP1 SWAP2 KECCAK256 DUP1 SLOAD PUSH1 0x1 DUP3 ADD SLOAD SWAP3 DUP3 ADD SLOAD PUSH1 0x3 DUP4 ADD DUP1 SLOAD SWAP3 SWAP5 PUSH1 0x1 PUSH1 0x1 PUSH1 0xA0 SHL SUB AND SWAP4 SWAP2 SWAP3 PUSH2 0x3C7 SWAP1 PUSH2 0x67A JUMP JUMPDEST DUP1 PUSH1 0x1F ADD PUSH1 0x20 DUP1 SWAP2 DIV MUL PUSH1 0x20 ADD PUSH1 0x40 MLOAD SWAP1 DUP2 ADD PUSH1 0x40 MSTORE DUP1 SWAP3 SWAP2 SWAP1 DUP2 DUP2 MSTORE PUSH1 0x20 ADD DUP3 DUP1 SLOAD PUSH2 0x3F3 SWAP1 PUSH2 0x67A JUMP JUMPDEST DUP1 ISZERO PUSH2 0x440 JUMPI DUP1 PUSH1 0x1F LT PUSH2 0x415 JUMPI PUSH2 0x100 DUP1 DUP4 SLOAD DIV MUL DUP4 MSTORE SWAP2 PUSH1 0x20 ADD SWAP2 PUSH2 0x440 JUMP JUMPDEST DUP3 ADD SWAP2 SWAP1 PUSH1 0x0 MSTORE PUSH1 0x20 PUSH1 0x0 KECCAK256 SWAP1 JUMPDEST DUP2 SLOAD DUP2 MSTORE SWAP1 PUSH1 0x1 ADD SWAP1 PUSH1 0x20 ADD DUP1 DUP4 GT PUSH2 0x423 JUMPI DUP3 SWAP1 SUB PUSH1 0x1F AND DUP3 ADD SWAP2 JUMPDEST POP POP POP POP POP SWAP1 POP DUP5 JUMP JUMPDEST PUSH1 0x60 PUSH1 0x1 DUP1 SLOAD PUSH2 0x459 SWAP1 PUSH2 0x67A JUMP JUMPDEST DUP1 PUSH1 0x1F ADD PUSH1 0x20 DUP1 SWAP2 DIV MUL PUSH1 0x20 ADD PUSH1 0x40 MLOAD SWAP1 DUP2 ADD PUSH1 0x40 MSTORE DUP1 SWAP3 SWAP2 SWAP1 DUP2 DUP2 MSTORE PUSH1 0x20 ADD DUP3 DUP1 SLOAD PUSH2 0x485 SWAP1 PUSH2 0x67A JUMP JUMPDEST DUP1 ISZERO PUSH2 0x4D2 JUMPI DUP1 PUSH1 0x1F LT PUSH2 0x4A7 JUMPI PUSH2 0x100 DUP1 DUP4 SLOAD DIV MUL DUP4 MSTORE SWAP2 PUSH1 0x20 ADD SWAP2 PUSH2 0x4D2 JUMP JUMPDEST DUP3 ADD SWAP2 SWAP1 PUSH1 0x0 MSTORE PUSH1 0x20 PUSH1 0x0 KECCAK256 SWAP1 JUMPDEST DUP2 SLOAD DUP2 MSTORE SWAP1 PUSH1 0x1 ADD SWAP1 PUSH1 0x20 ADD DUP1 DUP4 GT PUSH2 0x4B5 JUMPI DUP3 SWAP1 SUB PUSH1 0x1F AND DUP3 ADD SWAP2 JUMPDEST POP POP POP POP POP SWAP1 POP SWAP1 JUMP JUMPDEST PUSH4 0x4E487B71 PUSH1 0xE0 SHL PUSH1 0x0 MSTORE PUSH1 0x41 PUSH1 0x4 MSTORE PUSH1 0x24 PUSH1 0x0 REVERT JUMPDEST PUSH1 0x0 PUSH1 0x20 DUP3 DUP5 SUB SLT ISZERO PUSH2 0x504 JUMPI PUSH1 0x0 DUP1 REVERT JUMPDEST DUP2 CALLDATALOAD PUSH8 0xFFFFFFFFFFFFFFFF DUP1 DUP3 GT ISZERO PUSH2 0x51C JUMPI PUSH1 0x0 DUP1 REVERT JUMPDEST DUP2 DUP5 ADD SWAP2 POP DUP5 PUSH1 0x1F DUP4 ADD SLT PUSH2 0x530 JUMPI PUSH1 0x0 DUP1 REVERT JUMPDEST DUP2 CALLDATALOAD DUP2 DUP2 GT ISZERO PUSH2 0x542 JUMPI PUSH2 0x542 PUSH2 0x4DC JUMP JUMPDEST PUSH1 0x40 MLOAD PUSH1 0x1F DUP3 ADD PUSH1 0x1F NOT SWAP1 DUP2 AND PUSH1 0x3F ADD AND DUP2 ADD SWAP1 DUP4 DUP3 GT DUP2 DUP4 LT OR ISZERO PUSH2 0x56A JUMPI PUSH2 0x56A PUSH2 0x4DC JUMP JUMPDEST DUP2 PUSH1 0x40 MSTORE DUP3 DUP2 MSTORE DUP8 PUSH1 0x20 DUP5 DUP8 ADD ADD GT ISZERO PUSH2 0x583 JUMPI PUSH1 0x0 DUP1 REVERT JUMPDEST DUP3 PUSH1 0x20 DUP7 ADD PUSH1 0x20 DUP4 ADD CALLDATACOPY PUSH1 0x0 SWAP3 DUP2 ADD PUSH1 0x20 ADD SWAP3 SWAP1 SWAP3 MSTORE POP SWAP6 SWAP5 POP POP POP POP POP JUMP JUMPDEST PUSH1 0x0 PUSH1 0x20 DUP3 DUP5 SUB SLT ISZERO PUSH2 0x5B5 JUMPI PUSH1 0x0 DUP1 REVERT JUMPDEST POP CALLDATALOAD SWAP2 SWAP1 POP JUMP JUMPDEST PUSH1 0x0 DUP2 MLOAD DUP1 DUP5 MSTORE PUSH1 0x0 JUMPDEST DUP2 DUP2 LT ISZERO PUSH2 0x5E2 JUMPI PUSH1 0x20 DUP2 DUP6 ADD DUP2 ADD MLOAD DUP7 DUP4 ADD DUP3 ADD MSTORE ADD PUSH2 0x5C6 JUMP JUMPDEST POP PUSH1 0x0 PUSH1 0x20 DUP3 DUP7 ADD ADD MSTORE PUSH1 0x20 PUSH1 0x1F NOT PUSH1 0x1F DUP4 ADD AND DUP6 ADD ADD SWAP2 POP POP SWAP3 SWAP2 POP POP JUMP JUMPDEST DUP5 DUP2 MSTORE PUSH1 0x1 DUP1 PUSH1 0xA0 SHL SUB DUP5 AND PUSH1 0x20 DUP3 ADD MSTORE DUP3 PUSH1 0x40 DUP3 ADD MSTORE PUSH1 0x80 PUSH1 0x60 DUP3 ADD MSTORE PUSH1 0x0 PUSH2 0x62F PUSH1 0x80 DUP4 ADD DUP5 PUSH2 0x5BC JUMP JUMPDEST SWAP7 SWAP6 POP POP POP POP POP POP JUMP JUMPDEST PUSH1 0x20 DUP2 MSTORE PUSH1 0x0 PUSH2 0x64C PUSH1 0x20 DUP4 ADD DUP5 PUSH2 0x5BC JUMP JUMPDEST SWAP4 SWAP3 POP POP POP JUMP JUMPDEST PUSH1 0x0 PUSH1 0x1 DUP3 ADD PUSH2 0x673 JUMPI PUSH4 0x4E487B71 PUSH1 0xE0 SHL PUSH1 0x0 MSTORE PUSH1 0x11 PUSH1 0x4 MSTORE PUSH1 0x24 PUSH1 0x0 REVERT JUMPDEST POP PUSH1 0x1 ADD SWAP1 JUMP JUMPDEST PUSH1 0x1 DUP2 DUP2 SHR SWAP1 DUP3 AND DUP1 PUSH2 0x68E JUMPI PUSH1 0x7F DUP3 AND SWAP2 POP JUMPDEST PUSH1 0x20 DUP3 LT DUP2 SUB PUSH2 0x6AE JUMPI PUSH4 0x4E487B71 PUSH1 0xE0 SHL PUSH1 0x0 MSTORE PUSH1 0x22 PUSH1 0x4 MSTORE PUSH1 0x24 PUSH1 0x0 REVERT JUMPDEST POP SWAP2 SWAP1 POP JUMP JUMPDEST PUSH1 0x1F DUP3 GT ISZERO PUSH2 0x6FE JUMPI PUSH1 0x0 DUP2 DUP2 MSTORE PUSH1 0x20 DUP2 KECCAK256 PUSH1 0x1F DUP6 ADD PUSH1 0x5 SHR DUP2 ADD PUSH1 0x20 DUP7 LT ISZERO PUSH2 0x6DB JUMPI POP DUP1 JUMPDEST PUSH1 0x1F DUP6 ADD PUSH1 0x5 SHR DUP3 ADD SWAP2 POP JUMPDEST DUP2 DUP2 LT ISZERO PUSH2 0x6FA JUMPI DUP3 DUP2 SSTORE PUSH1 0x1 ADD PUSH2 0x6E7 JUMP JUMPDEST POP POP POP JUMPDEST POP POP POP JUMP JUMPDEST DUP2 MLOAD PUSH8 0xFFFFFFFFFFFFFFFF DUP2 GT ISZERO PUSH2 0x71D JUMPI PUSH2 0x71D PUSH2 0x4DC JUMP JUMPDEST PUSH2 0x731 DUP2 PUSH2 0x72B DUP5 SLOAD PUSH2 0x67A JUMP JUMPDEST DUP5 PUSH2 0x6B4 JUMP JUMPDEST PUSH1 0x20 DUP1 PUSH1 0x1F DUP4 GT PUSH1 0x1 DUP2 EQ PUSH2 0x766 JUMPI PUSH1 0x0 DUP5 ISZERO PUSH2 0x74E JUMPI POP DUP6 DUP4 ADD MLOAD JUMPDEST PUSH1 0x0 NOT PUSH1 0x3 DUP7 SWAP1 SHL SHR NOT AND PUSH1 0x1 DUP6 SWAP1 SHL OR DUP6 SSTORE PUSH2 0x6FA JUMP JUMPDEST PUSH1 0x0 DUP6 DUP2 MSTORE PUSH1 0x20 DUP2 KECCAK256 PUSH1 0x1F NOT DUP7 AND SWAP2 JUMPDEST DUP3 DUP2 LT ISZERO PUSH2 0x795 JUMPI DUP9 DUP7 ADD MLOAD DUP3 SSTORE SWAP5 DUP5 ADD SWAP5 PUSH1 0x1 SWAP1 SWAP2 ADD SWAP1 DUP5 ADD PUSH2 0x776 JUMP JUMPDEST POP DUP6 DUP3 LT ISZERO PUSH2 0x7B3 JUMPI DUP8 DUP6 ADD MLOAD PUSH1 0x0 NOT PUSH1 0x3 DUP9 SWAP1 SHL PUSH1 0xF8 AND SHR NOT AND DUP2 SSTORE JUMPDEST POP POP POP POP POP PUSH1 0x1 SWAP1 DUP2 SHL ADD SWAP1 SSTORE POP JUMP INVALID LOG2 PUSH5 0x6970667358 0x22 SLT KECCAK256 TIMESTAMP BASEFEE 0x2A REVERT KECCAK256 XOR PREVRANDAO LOG1 SDIV EXTCODEHASH 0xA7 SWAP1 EXTCODESIZE 0xB9 0xC8 0xB4 DUP6 BASEFEE 0x27 0xE4 SWAP10 0xB8 0xDD LOG1 SWAP7 0x2D PUSH28 0x5841B5507D64736F6C63430008140033000000000000000000000000 "},"methodIdentifiers":{"addItem(string)":"27e9f294","getItem(uint256)":"3129e773","getMessage()":"ce6d41de","getValue()":"20965255","itemCount()":"6bfb0d01","items(uint256)":"bfb231d2","setMessage(string)":"368b8772","setValue(uint256)":"55241077"}}}}}