{
  "_format": "hh-sol-artifact-1",
  "contractName": "SimpleStorage",
  "sourceName": "contracts/SimpleStorage.sol",
  "abi": [
    {
      "anonymous": false,
      "inputs": [
        {
          "indexed": false,
          "internalType": "uint256",
          "name": "itemId",
          "type": "uint256"
        },
        {
          "indexed": true,
          "internalType": "address",
          "name": "owner",
          "type": "address"
        }
      ],
      "name": "ItemAdded",
      "type": "event"
    },
    {
      "anonymous": false,
      "inputs": [
        {
          "indexed": false,
          "internalType": "string",
          "name": "newMessage",
          "type": "string"
        },
        {
          "indexed": true,
          "internalType": "address",
          "name": "changer",
          "type": "address"
        }
      ],
      "name": "MessageChanged",
      "type": "event"
    },
    {
      "anonymous": false,
      "inputs": [
        {
          "indexed": false,
          "internalType": "uint256",
          "name": "newValue",
          "type": "uint256"
        },
        {
          "indexed": true,
          "internalType": "address",
          "name": "changer",
          "type": "address"
        }
      ],
      "name": "ValueChanged",
      "type": "event"
    },
    {
      "inputs": [
        {
          "internalType": "string",
          "name": "data",
          "type": "string"
        }
      ],
      "name": "addItem",
      "outputs": [
        {
          "internalType": "uint256",
          "name": "",
          "type": "uint256"
        }
      ],
      "stateMutability": "nonpayable",
      "type": "function"
    },
    {
      "inputs": [
        {
          "internalType": "uint256",
          "name": "itemId",
          "type": "uint256"
        }
      ],
      "name": "getItem",
      "outputs": [
        {
          "internalType": "uint256",
          "name": "id",
          "type": "uint256"
        },
        {
          "internalType": "address",
          "name": "owner",
          "type": "address"
        },
        {
          "internalType": "uint256",
          "name": "timestamp",
          "type": "uint256"
        },
        {
          "internalType": "string",
          "name": "data",
          "type": "string"
        }
      ],
      "stateMutability": "view",
      "type": "function"
    },
    {
      "inputs": [],
      "name": "getMessage",
      "outputs": [
        {
          "internalType": "string",
          "name": "",
          "type": "string"
        }
      ],
      "stateMutability": "view",
      "type": "function"
    },
    {
      "inputs": [],
      "name": "getValue",
      "outputs": [
        {
          "internalType": "uint256",
          "name": "",
          "type": "uint256"
        }
      ],
      "stateMutability": "view",
      "type": "function"
    },
    {
      "inputs": [],
      "name": "itemCount",
      "outputs": [
        {
          "internalType": "uint256",
          "name": "",
          "type": "uint256"
        }
      ],
      "stateMutability": "view",
      "type": "function"
    },
    {
      "inputs": [
        {
          "internalType": "uint256",
          "name": "",
          "type": "uint256"
        }
      ],
      "name": "items",
      "outputs": [
        {
          "internalType": "uint256",
          "name": "id",
          "type": "uint256"
        },
        {
          "internalType": "address",
          "name": "owner",
          "type": "address"
        },
        {
          "internalType": "uint256",
          "name": "timestamp",
          "type": "uint256"
        },
        {
          "internalType": "string",
          "name": "data",
          "type": "string"
        }
      ],
      "stateMutability": "view",
      "type": "function"
    },
    {
      "inputs": [
        {
          "internalType": "string",
          "name": "newMessage",
          "type": "string"
        }
      ],
      "name": "setMessage",
      "outputs": [],
      "stateMutability": "nonpayable",
      "type": "function"
    },
    {
      "inputs": [
        {
          "internalType": "uint256",
          "name": "newValue",
          "type": "uint256"
        }
      ],
      "name": "setValue",
      "outputs": [],
      "stateMutability": "nonpayable",
      "type": "function"
    }
  ],
  "bytecode": "0x608060405234801561001057600080fd5b506107f9806100206000396000f3fe608060405234801561001057600080fd5b50600436106100885760003560e01c8063552410771161005b57806355241077146100ef5780636bfb0d0114610102578063bfb231d21461010b578063ce6d41de1461011e57600080fd5b8063209652551461008d57806327e9f294146100a45780633129e773146100b7578063368b8772146100da575b600080fd5b6000545b6040519081526020015b60405180910390f35b6100916100b23660046104f2565b610133565b6100ca6100c53660046105a3565b610206565b60405161009b9493929190610602565b6100ed6100e83660046104f2565b610306565b005b6100ed6100fd3660046105a3565b610357565b61009160035481565b6100ca6101193660046105a3565b61038e565b61012661044a565b60405161009b9190610639565b600380546000918261014483610653565b9091555050604080516080810182526003805480835233602080850191825242858701908152606086018981526000948552600292839052969093208551815591516001830180546001600160a01b0319166001600160a01b039092169190911790559151918101919091559251919291908201906101c39082610703565b50506003546040519081523391507f6375005112faeb3c31f129d3aa24c423df50ca6f7c78b0490c6f4b691feac38a9060200160405180910390a2505060035490565b600081815260026020818152604080842081516080810183528154815260018201546001600160a01b031693810193909352928301549082015260038201805484938493606093859391929183860191906102609061067a565b80601f016020809104026020016040519081016040528092919081815260200182805461028c9061067a565b80156102d95780601f106102ae576101008083540402835291602001916102d9565b820191906000526020600020905b8154815290600101906020018083116102bc57829003601f168201915b505050919092525050815160208301516040840151606090940151919a9099509297509550909350505050565b60016103128282610703565b50336001600160a01b03167ffe805c34be9e63a416b9aba99c6c62782dafb9620895945675bbbe5131aeb1a18260405161034c9190610639565b60405180910390a250565b600081905560405181815233907fc53a6612a7428e1fc89cb87169d69d64eaefe94f5b45d43f80f1ad9d7065d2c89060200161034c565b6002602081905260009182526040909120805460018201549282015460038301805492946001600160a01b03169391926103c79061067a565b80601f01602080910402602001604051908101604052809291908181526020018280546103f39061067a565b80156104405780601f1061041557610100808354040283529160200191610440565b820191906000526020600020905b81548152906001019060200180831161042357829003601f168201915b5050505050905084565b6060600180546104599061067a565b80601f01602080910402602001604051908101604052809291908181526020018280546104859061067a565b80156104d25780601f106104a7576101008083540402835291602001916104d2565b820191906000526020600020905b8154815290600101906020018083116104b557829003601f168201915b5050505050905090565b634e487b7160e01b600052604160045260246000fd5b60006020828403121561050457600080fd5b813567ffffffffffffffff8082111561051c57600080fd5b818401915084601f83011261053057600080fd5b813581811115610542576105426104dc565b604051601f8201601f19908116603f0116810190838211818310171561056a5761056a6104dc565b8160405282815287602084870101111561058357600080fd5b826020860160208301376000928101602001929092525095945050505050565b6000602082840312156105b557600080fd5b5035919050565b6000815180845260005b818110156105e2576020818501810151868301820152016105c6565b506000602082860101526020601f19601f83011685010191505092915050565b84815260018060a01b038416602082015282604082015260806060820152600061062f60808301846105bc565b9695505050505050565b60208152600061064c60208301846105bc565b9392505050565b60006001820161067357634e487b7160e01b600052601160045260246000fd5b5060010190565b600181811c9082168061068e57607f821691505b6020821081036106ae57634e487b7160e01b600052602260045260246000fd5b50919050565b601f8211156106fe57600081815260208120601f850160051c810160208610156106db5750805b601f850160051c820191505b818110156106fa578281556001016106e7565b5050505b505050565b815167ffffffffffffffff81111561071d5761071d6104dc565b6107318161072b845461067a565b846106b4565b602080601f831160018114610766576000841561074e5750858301515b600019600386901b1c1916600185901b1785556106fa565b600085815260208120601f198616915b8281101561079557888601518255948401946001909101908401610776565b50858210156107b35787850151600019600388901b60f8161c191681555b5050505050600190811b0190555056fea264697066735822122042482afd201844a1053fa7903bb9c8b4854827e499b8dda1962d7b5841b5507d64736f6c63430008140033",
  "linkReferences": {},
  "deployedLinkReferences": {}
}