{
  "_format": "hh-sol-artifact-1",
  "contractName": "Ballot",
  "sourceName": "contracts/Ballot.sol",
  "abi": [
    {
      "inputs": [
        {
          "internalType": "string[]",
          "name": "proposalNames",
          "type": "string[]"
        }
      ],
      "stateMutability": "nonpayable",
      "type": "constructor"
    },
    {
      "anonymous": false,
      "inputs": [
        {
          "indexed": true,
          "internalType": "address",
          "name": "from",
          "type": "address"
        },
        {
          "indexed": true,
          "internalType": "address",
          "name": "to",
          "type": "address"
        }
      ],
      "name": "Delegated",
      "type": "event"
    },
    {
      "anonymous": false,
      "inputs": [
        {
          "indexed": true,
          "internalType": "address",
          "name": "voter",
          "type": "address"
        },
        {
          "indexed": false,
          "internalType": "uint256",
          "name": "proposalId",
          "type": "uint256"
        }
      ],
      "name": "Voted",
      "type": "event"
    },
    {
      "inputs": [],
      "name": "chairperson",
      "outputs": [
        {
          "internalType": "address",
          "name": "",
          "type": "address"
        }
      ],
      "stateMutability": "view",
      "type": "function"
    },
    {
      "inputs": [
        {
          "internalType": "address",
          "name": "to",
          "type": "address"
        }
      ],
      "name": "delegate",
      "outputs": [],
      "stateMutability": "nonpayable",
      "type": "function"
    },
    {
      "inputs": [
        {
          "internalType": "address",
          "name": "to",
          "type": "address"
        }
      ],
      "name": "giveRightToVote",
      "outputs": [],
      "stateMutability": "nonpayable",
      "type": "function"
    },
    {
      "inputs": [
        {
          "internalType": "uint256",
          "name": "",
          "type": "uint256"
        }
      ],
      "name": "proposals",
      "outputs": [
        {
          "internalType": "string",
          "name": "name",
          "type": "string"
        },
        {
          "internalType": "uint256",
          "name": "voteCount",
          "type": "uint256"
        }
      ],
      "stateMutability": "view",
      "type": "function"
    },
    {
      "inputs": [
        {
          "internalType": "uint256",
          "name": "proposalId",
          "type": "uint256"
        }
      ],
      "name": "vote",
      "outputs": [],
      "stateMutability": "nonpayable",
      "type": "function"
    },
    {
      "inputs": [
        {
          "internalType": "address",
          "name": "",
          "type": "address"
        }
      ],
      "name": "voters",
      "outputs": [
        {
          "internalType": "uint256",
          "name": "weight",
          "type": "uint256"
        },
        {
          "internalType": "bool",
          "name": "voted",
          "type": "bool"
        },
        {
          "internalType": "address",
          "name": "delegate",
          "type": "address"
        },
        {
          "internalType": "uint256",
          "name": "vote",
          "type": "uint256"
        }
      ],
      "stateMutability": "view",
      "type": "function"
    },
    {
      "inputs": [],
      "name": "winnerName",
      "outputs": [
        {
          "internalType": "string",
          "name": "winnerName",
          "type": "string"
        }
      ],
      "stateMutability": "view",
      "type": "function"
    },
    {
      "inputs": [],
      "name": "winningProposal",
      "outputs": [
        {
          "internalType": "uint256",
          "name": "winningProposal",
          "type": "uint256"
        }
      ],
      "stateMutability": "view",
      "type": "function"
    }
  ],
  "bytecode": "0x60806040523480156200001157600080fd5b5060405162000dca38038062000dca833981016040819052620000349162000131565b600080546001600160a01b03191633908117825581526001602081905260408220555b8151811015620000e0576002604051806040016040528084848151811062000083576200008362000275565b60209081029190910181015182526000918101829052835460018101855593825290208151919260020201908190620000bd90826200031a565b506020820151816001015550508080620000d790620003e6565b91505062000057565b50506200040e565b634e487b7160e01b600052604160045260246000fd5b604051601f8201601f191681016001600160401b0381118282101715620001295762000129620000e8565b604052919050565b600060208083850312156200014557600080fd5b82516001600160401b03808211156200015d57600080fd5b8185019150601f86818401126200017357600080fd5b825182811115620001885762000188620000e8565b8060051b62000199868201620000fe565b918252848101860191868101908a841115620001b457600080fd5b87870192505b838310156200026757825186811115620001d45760008081fd5b8701603f81018c13620001e75760008081fd5b8881015187811115620001fe57620001fe620000e8565b62000211818801601f19168b01620000fe565b81815260408e81848601011115620002295760008081fd5b60005b8381101562000249578481018201518382018e01528c016200022c565b505060009181018b01919091528352509187019190870190620001ba565b9a9950505050505050505050565b634e487b7160e01b600052603260045260246000fd5b600181811c90821680620002a057607f821691505b602082108103620002c157634e487b7160e01b600052602260045260246000fd5b50919050565b601f8211156200031557600081815260208120601f850160051c81016020861015620002f05750805b601f850160051c820191505b818110156200031157828155600101620002fc565b5050505b505050565b81516001600160401b03811115620003365762000336620000e8565b6200034e816200034784546200028b565b84620002c7565b602080601f8311600181146200038657600084156200036d5750858301515b600019600386901b1c1916600185901b17855562000311565b600085815260208120601f198616915b82811015620003b75788860151825594840194600190910190840162000396565b5085821015620003d65787850151600019600388901b60f8161c191681555b5050505050600190811b01905550565b6000600182016200040757634e487b7160e01b600052601160045260246000fd5b5060010190565b6109ac806200041e6000396000f3fe608060405234801561001057600080fd5b50600436106100885760003560e01c8063609ff1bd1161005b578063609ff1bd1461010a5780639e7b8d6114610120578063a3ec138d14610133578063e2ba53f0146101a457600080fd5b80630121b93f1461008d578063013cf08b146100a25780632e4176cf146100cc5780635c19a95c146100f7575b600080fd5b6100a061009b36600461081a565b6101b9565b005b6100b56100b036600461081a565b6102e7565b6040516100c3929190610879565b60405180910390f35b6000546100df906001600160a01b031681565b6040516001600160a01b0390911681526020016100c3565b6100a061010536600461089b565b6103a3565b6101126105d5565b6040519081526020016100c3565b6100a061012e36600461089b565b610652565b61017561014136600461089b565b600160208190526000918252604090912080549181015460029091015460ff82169161010090046001600160a01b03169084565b6040516100c3949392919093845291151560208401526001600160a01b03166040830152606082015260800190565b6101ac61075f565b6040516100c391906108cb565b33600090815260016020526040812080549091036102155760405162461bcd60e51b8152602060048201526014602482015273486173206e6f20726967687420746f20766f746560601b60448201526064015b60405180910390fd5b600181015460ff161561025a5760405162461bcd60e51b815260206004820152600d60248201526c105b1c9958591e481d9bdd1959609a1b604482015260640161020c565b6001818101805460ff1916909117905560028082018390558154815490919084908110610289576102896108de565b906000526020600020906002020160010160008282546102a9919061090a565b909155505060405182815233907f4d99b957a2bc29a30ebd96a7be8e68fe50a3c701db28a91436490b7d53870ca49060200160405180910390a25050565b600281815481106102f757600080fd5b906000526020600020906002020160009150905080600001805461031a90610923565b80601f016020809104026020016040519081016040528092919081815260200182805461034690610923565b80156103935780601f1061036857610100808354040283529160200191610393565b820191906000526020600020905b81548152906001019060200180831161037657829003601f168201915b5050505050908060010154905082565b3360009081526001602081905260409091209081015460ff16156103fd5760405162461bcd60e51b8152602060048201526011602482015270165bdd48185b1c9958591e481d9bdd1959607a1b604482015260640161020c565b336001600160a01b038316036104555760405162461bcd60e51b815260206004820152601d60248201527f53656c662d64656c65676174696f6e20697320646973616c6c6f776564000000604482015260640161020c565b6001600160a01b0382811660009081526001602081905260409091200154610100900416156104f9576001600160a01b03918216600090815260016020819052604090912001546101009004909116903382036104f45760405162461bcd60e51b815260206004820152601860248201527f466f756e64206c6f6f7020696e2064656c65676174696f6e0000000000000000604482015260640161020c565b610455565b600181810180546001600160a81b0319166101006001600160a01b03861690810291909117831790915560009081526020829052604090209081015460ff161561058057815460028281015481548110610555576105556108de565b90600052602060002090600202016001016000828254610575919061090a565b9091555061059a9050565b81548154829060009061059490849061090a565b90915550505b6040516001600160a01b0384169033907f4bc154dd35d6a5cb9206482ecb473cdbf2473006d6bce728b9cc0741bcc59ea290600090a3505050565b600080805b60025481101561064d5781600282815481106105f8576105f86108de565b906000526020600020906002020160010154111561063b5760028181548110610623576106236108de565b90600052602060002090600202016001015491508092505b806106458161095d565b9150506105da565b505090565b6000546001600160a01b031633146106bc5760405162461bcd60e51b815260206004820152602760248201527f4f6e6c79206368616972706572736f6e2063616e206769766520726967687420604482015266746f20766f746560c81b606482015260840161020c565b6001600160a01b0381166000908152600160208190526040909120015460ff161561071f5760405162461bcd60e51b8152602060048201526013602482015272159bdd195c88185b1c9958591e481d9bdd1959606a1b604482015260640161020c565b6001600160a01b0381166000908152600160205260409020541561074257600080fd5b6001600160a01b0316600090815260016020819052604090912055565b6060600261076b6105d5565b8154811061077b5761077b6108de565b9060005260206000209060020201600001805461079790610923565b80601f01602080910402602001604051908101604052809291908181526020018280546107c390610923565b80156108105780601f106107e557610100808354040283529160200191610810565b820191906000526020600020905b8154815290600101906020018083116107f357829003601f168201915b5050505050905090565b60006020828403121561082c57600080fd5b5035919050565b6000815180845260005b818110156108595760208185018101518683018201520161083d565b506000602082860101526020601f19601f83011685010191505092915050565b60408152600061088c6040830185610833565b90508260208301529392505050565b6000602082840312156108ad57600080fd5b81356001600160a01b03811681146108c457600080fd5b9392505050565b6020815260006108c46020830184610833565b634e487b7160e01b600052603260045260246000fd5b634e487b7160e01b600052601160045260246000fd5b8082018082111561091d5761091d6108f4565b92915050565b600181811c9082168061093757607f821691505b60208210810361095757634e487b7160e01b600052602260045260246000fd5b50919050565b60006001820161096f5761096f6108f4565b506001019056fea264697066735822122096d4b31892dcc845a970906fb7cea462f62cd66a6d026a1f736584abf2d5734664736f6c63430008140033",
  "linkReferences": {},
  "deployedLinkReferences": {}
}